:020000020000FC
:10000000259A2D98249A2C9823982B9A229A2A98EC
:10001000219A299807EC00937A0000E600937C006F
:10002000409A0F931F9307E610E00093C4001093CB
:10003000C50008E10093C10006E00093C2001F91D3
:100040000F912F938F939F9324E68EE39CE9019762
:10005000F1F72A95D1F700009F918F912F912D985C
:100060002C982A98299807EC00937A0000E60093D0
:100070007C00409A00917A00006400937A0000911D
:100080007A0006FDFCCF00917800109179001639B6
:1000900078F40F930091C00005FFFCCF04E40093B7
:1000A000C6000F9110E02D982C982A980DC0C9CF4A
:1000B0002D9A0F930091C00005FFFCCF0CE4009334
:1000C000C6000F9101C000C01B994BC00F93009157
:1000D000C00005FFFCCF07E50093C6000F9100C0EC
:1000E00007EC00937A0001E600937C00419A10E04F
:1000F00000917A00006400937A0000917A0006FD76
:10010000FCCF00917800109179001436A8F50F9378
:100110000091C00005FFFCCF03E50093C6000F91DE
:1001200000C007EC00937A0002E600937C00429A3C
:1001300000917A00006400937A0000917A0006FD35
:10014000FCCF0091780010917900143600F50F93E0
:100150000091C00005FFFCCF0EE40093C6000F9194
:1001600070CF2C9A0F930091C00005FFFCCF06E4DE
:100170000093C6000F91B4CF2A9A0F930091C0004C
:1001800005FFFCCF02E50093C6000F91CACF299A64
:100190000F930091C00005FFFCCF07E40093C60059
:0401A0000F914FCF9D
:00000001FF
